S01000004C45445F746573742E7372656320
S113000019C0E0C232C031C030C02FC02EC02DC0D4
S11300102CC02BC02AC029C028C0FAC326C025C0C2
S113002024C023C022C021C020C01FC01EC01DC0C8
S11300301CC01BC011241FBECFEFD4E0DEBFCDBF58
S113004011E0A0E0B1E0E4ECF8E002C005900D920C
S1130050A832B107D9F721E0A8E2B1E001C01D92AE
S1130060A834B207E1F7A9D32BC4CACF009741F053
S1130070E9EFF0E03197F1F700C000000197C1F714
S1130080089580E880BF5B98539A5998519A58987C
S1130090509A0895599820E030E090E05998000073
S11300A000000000AC01022E02C0559547950A9449
S11300B0E2F740FF02C0589A01C0589800000000BF
S11300C0599A00000000000000002F5F3F4F2830C5
S11300D0310521F708955B9A589A599A91E29A95B5
S11300E0F1F700005B98000000000000D3DF00007F
S11300F00000599A000000005B9A00000000089577
S1130100CF93C62F5B9A0000000000005B980000AC
S113011000000000E82FF0E0EE5FFE4F8081BADFC0
S113012000000000EC2FF0E0EE5EFE4F8081B2DFB5
S1130130000000005B9ACF910895CF93DF93D82FEE
S1130140C0E06D2F8C2FDCDFCF5FC430D1F7DF919F
S1130150CF91089596DF8CE9BEDF87EA91E6019797
S1130160F1F700C0000081E1E8DF87EA91E601973A
S1130170F1F700C000000895FF920F931F93CF93EF
S1130180DF93F82E662371F10FEF080F802F860F8F
S1130190E82FF0E0E85DFE4F9081911121C0D82F47
S11301A0C62F1EEF1F0D610F162F181B13C0D10F82
S11301B0ED2FF0E0E85DFE4F9081992359F0802FF8
S11301C08C0FE82FF0E0E85DFE4F608199DFC150AD
S11301D0B1F70FC060E18D2F93DFC15041F702C02A
S11301E0C62FEDCFEF2DF0E0E85DFE4F60818F2D3F
S11301F087DFDF91CF911F910F91FF9008950895AC
S11302005D9A55985E9A56985F9A5798089580918A
S11302104201882321F04D9B06C04E9B06C04F9B94
S113022006C080E0089581E0089582E0089583E0A7
S11302300895EDDF90914101923051F128F4992312
S113024051F0913091F063C0933009F448C0943078
S113025009F44CC05CC0882309F45DC091E090931C
S113026041018093400180E00895882369F09091D2
S11302704001981721F01092410180E0089582E036
S11302808093410180E008951092410180E0089537
S11302908823D1F080913E0190913F010196909383
S11302A03F0180933E0122E020934101893893412C
S11302B0A0F110923F0110923E0180914001806BA9
S11302C093E090934101089510923F0110923E01F2
S11302D080914001806A93E09093410108958111D7
S11302E01EC084E08093410180E0089581110AC01A
S11302F01092410110923F0110923E018091400101
S1130300806D089583E08093410180E00895109208
S1130310410180E0089580E0089580E0089580E040
S113032008951092430185DF90910001913079F591
S1130330882309F44BC010920001833AA9F028F4F1
S1130340813A51F0823A61F01FC0823BA9F0833BAD
S1130350B9F0813BC9F40CC081E080934301089556
S113036082E080934301089583E0809343010895DC
S113037084E080934301089585E0809343010895C8
S113038086E08093430108951092430108958823E1
S1130390E9F0823D59F0833D81F0813DA9F487E085
S11303A08093430181E080930001089588E0809365
S11303B0430181E080930001089589E08093430123
S11303C081E08093000108951092430108951092F2
S11303D0470110924601E8E2F1E010821182128294
S11303E0138264E080E0C8CE0895CF93DF938091B8
S11303F04601909147018F3027E2920728F010922E
S113040047011092460105C00196909347018093DD
S113041046014091460150914701E8E2F1E09A011A
S1130420ADECBCEC41D2EC01D695C795D695C795F9
S1130430D695C7959E01220F331FCE01880F991FB1
S1130440880F991F880F991F820F931F9A01281BE9
S1130450390B20839E0128D296958795969587958A
S1130460969587959C01220F331F880F991F880F3B
S1130470991F880F991F820F931FC81BD90BC18323
S11304809A013695279536952795ABE7B4E10CD2BA
S1130490EC01D695C7959E01ADECBCEC05D2BC0130
S11304A0769567957695679576956795CB01880FD0
S11304B0991F660F771F660F771F660F771F680FE8
S11304C0791FC61BD70BC2839A013695279536959B
S11304D0279536952795A5ECB0E2E6D1EC01D295A7
S11304E0C295CF70CD27DF70CD279E01ADECBCEC5B
S11304F0DBD1AC015695479556954795569547954A
S1130500CA01880F991F440F551F440F551F440FEC
S1130510551F480F591FC41BD50BC38364E080E0EB
S11305202BDEDF91CF91089581E0909142019111EA
S113053080E080934201811102C02FD101C059D1C2
S113054064E080E019CE089580914301833079F00E
S113055018F4823031F017C0843059F0853079F0C6
S113056012C080914201882371F03FDF0CC0DCDFB0
S11305700AC080914201882331F029DF04C08091B0
S11305804201811132DF109243010895279A269A7D
S1130590229A2F982E982A982A9A84E690E066DD6B
S11305A02A9880E880BF10927A0082E080936900E4
S11305B0E89A0895F999FECF92BD81BD60BDFA9A7B
S11305C0F99A08951F920F920FB60F9211242F9348
S11305D03F934F935F936F937F938F939F93AF93C7
S11305E0BF93EF93FF93F894E09880914601909124
S11305F047018F30974220F0109247011092460134
S11306006091460180E590E0D5DF6091470181E586
S113061090E0D0DF0000FF91EF91BF91AF919F91E7
S11306208F917F916F915F914F913F912F910F9097
S11306300FBE0F901F901895F999FECF92BD81BD02
S1130640F89A80B50895CF93DF9381E590E0F4DFC5
S1130650C82FD0E0D0934701C093460180E590E0D5
S1130660EBDFDC2FCC27C80FD11DCF3027E2D20718
S113067028F4D0934701C093460104C01092470167
S1130680109246014091460150914701E8E2F1E0A1
S11306909A01ADECBCEC08D1EC01D695C795D69582
S11306A0C795D695C7959E01220F331FCE01880F9B
S11306B0991F880F991F880F991F820F931F9A0102
S11306C0281B390B20839E01EFD09695879596952C
S11306D08795969587959C01220F331F880F991F44
S11306E0880F991F880F991F820F931FC81BD90B5E
S11306F0C1839A013695279536952795ABE7B4E1E2
S1130700D3D0EC01D695C7959E01ADECBCECCCD012
S1130710BC01769567957695679576956795CB0137
S1130720880F991F660F771F660F771F660F771F55
S1130730680F791FC61BD70BC2839A01369527957C
S11307403695279536952795A5ECB0E2ADD0EC010A
S1130750D295C295CF70CD27DF70CD279E01ADEC29
S1130760BCECA2D0AC015695479556954795569545
S11307704795CA01880F991F440F551F440F551FF1
S1130780440F551F480F591FC41BD50BC38364E086
S113079080E0F2DCDF91CF9108958FEA9CE390939F
S11307A08500809384001092800081E08093810012
S11307B01092820080936F00089521DDF89484E6FE
S11307C090E054DCE3DE1CDDC5DC3DDF64E187E062
S11307D097DCE098789410924501BCDC84EF91E0BA
S11307E045DCDBDF9EDD809143018823D9F3ACDE59
S11307F0F9CF8FEA9CE39093850080938400109254
S11308008000109281001092820010926F0008956F
S11308101F920F920FB60F9211242F933F934F9371
S11308205F936F937F938F939F93AF93BF93EF9354
S1130830FF93809144018431E0F01092440180914F
S11308400101882379F01092010160E180E058DC15
S113085060E181E055DC60E182E052DC60E183E04C
S11308604FDC0AC081E08093010164E080E084DC15
S113087003C08F5F80934401B0988FEA9CE3909308
S1130880850080938400FF91EF91BF91AF919F9178
S11308908F917F916F915F914F913F912F910F9025
S11308A00FBE0F901F901895A29FB001B39FC00177
S11308B0A39F01D0B29F700D811D1124911D089535
S10708C0F894FFCFD6
S11308C40101C3C2C1C0C7C6C5C4C8C9CACBCCCD43
S11308D4CECF3F065B4F666D7D077F6F777C395EB5
S10B08E4797100FF0503010016
S9030000FC
